:020000040C00EE
:100000000008001001020008B102000815040008F1
:100010001F0B000817040008190400080000000066
:10002000000000000000000000000000B102000815
:10003000B102000800000000B1020008B10200088F
:10004000B1020008B1020008B1020008B1020008C4
:10005000B1020008B1020008B1020008B1020008B4
:10006000B1020008000000000000000000000000D5
:10007000B102000800000000B1020008B10200084F
:10008000B1020008B1020008B1020008B102000884
:10009000B1020008B1020008B1020008B102000874
:1000A000B1020008B1020008B1020008B102000864
:1000B000B1020008B1020008B1020008B102000854
:1000C000B1020008B1020008B1020008B102000844
:1000D000B1020008B1020008B1020008B102000834
:1000E000B1020008B1020008B1020008B102000824
:1000F000B1020008B1020008B1020008B102000814
:10010000B1020008B1020008B1020008B102000803
:10011000B1020008B1020008B1020008B1020008F3
:10012000B1020008B1020008B1020008B1020008E3
:10013000B1020008B1020008B1020008B1020008D3
:10014000B1020008B1020008B1020008B1020008C3
:10015000B1020008B1020008B1020008B1020008B3
:10016000000000000000000000000000000000008F
:10017000B1020008B1020008B1020008B102000893
:10018000B1020008B1020008B1020008B102000883
:10019000B1020008B1020008B1020008B102000873
:1001A000B1020008B1020008B1020008B102000863
:1001B000B1020008B1020008B1020008B102000853
:1001C000B1020008B1020008B1020008B102000843
:1001D000B1020008B1020008B102000800000000EE
:1001E000B1020008B1020008B10200081D040008B5
:1001F000B102000800000000B10200080000000089
:10020000DFF88CD023488047234C244DAC4209DAD8
:1002100021686268A368043BA2BFC858D050FAE7BF
:100220000C34F3E71E4B1F4CA34208DA19685A68D6
:100230000020043AA4BF8850FBE70833F4E71A48CB
:1002400080471A488047000058E1000C0000002059
:10025000BC0B000034ED000C00000030000000007A
:1002600058E1000C000800100000000058E1000CEC
:100270000008001000000000DC0B0020C408000093
:1002800000000030000E0000000800100000000018
:1002900000080010B1460008480200087802000873
:1002A000780200089002000891C90008B502000811
:1002B000FEE7000070B590B02F4B1B680F934FF016
:1002C000000300230493059306930293039307AC62
:1002D0002A4D0FCD0FC495E80F0084E80F00284881
:1002E00004F07EFC04F036FD002805DB00F09EF8EB
:1002F00004AC182600251DE01F4B1A680F9B5A40BE
:100300004FF0000336D1012010B070BD304604F02C
:1003100053FE0690314604F0C5FC13E0069804F045
:100320006DFE0695029804F069FE029504980AF0A5
:1003300033F80495204600F0F7F90028FAD1069B1F
:10034000002BE3D005981030039004F035FE0290A6
:1003500007AB0193069B0093059A2B46049904F082
:1003600030FB0028DAD1059B1033039302A800F07C
:10037000EBF9D3E700F0E0FB8CDC000844DA00087E
:1003800068040020F0B589B0002504950595502338
:100390008DF80C3002278DF80D7004268DF80E6054
:1003A00001248DF80F408DF812404FF480330693EE
:1003B0008DF81C408DF81D408DF81E408DF81F40B3
:1003C00003A803F0F3F902F0EBFE4021384602F0F7
:1003D000FBFE304602F07EFE284602F0FDFD204680
:1003E00002F0A2FE04F052F8084A07CA8DE807009E
:1003F00000F049FB204600F022FB054AD2F81832F3
:1004000043F44003C2F8183209B0F0BD64DA0008C2
:1004100000800248FEE7FEE7FEE7000008B502485C
:1004200001F0D6FC08BD00BF0000002008B516484A
:1004300000F0DCFE154BDB68C3F30223C3F10701B8
:10044000062928BF06219A1D062A8CBF03F1FF3218
:1004500000224FF0FF338B40DB4393409B00DBB225
:100460000B4A82F86B334FF40063C2F88C31D360CF
:10047000054B4FF416529A62082283F82E20054B42
:100480001B68DB68984708BD0000002000ED00E015
:1004900000E100E09C0C00207047704708B5084B55
:1004A00093F83E3113F0010F00D108BDFFF7BEFFF6
:1004B000034A92F83E3123F0010382F83E31F4E71B
:1004C0009C0C002010B50E4C40222146812000F0EB
:1004D000D1FE4022A118822000F0CCFE402204F17F
:1004E0008001032000F0C6FE064801F005FF064A21
:1004F00092F83E3143F0010382F83E3110BD00BF57
:10050000DC0B0020100000209C0C002008B50248E5
:1005100002F0B0F808BD00BF10000020704770471F
:1005200070470000030A022B0FD0032B04D0012BCD
:100530000FD0002003460AE0C0B201280CD00228E8
:100540000DD078B10020034601E03E20074B136038
:1005500070471220064BFAE75820064BF7E7202099
:10056000054BF4E70420054BF1E700BF84DA0008EF
:1005700070DA0008F0DA0008CCDA0008C4DA000803
:1005800010B5074C02E0204601F082FF204601F042
:10059000A5FF0028F7D0024801F0DAFF10BD00BF28
:1005A000100000202DE9F04192B00646374B1B6841
:1005B00011934FF0000308AD2422002128460BF0D0
:1005C00063FF00230193029303930493059306931F
:1005D000CDF81B301B2300930DF14408FFF7D0FF2B
:1005E0000446FF28FADC022846D0C7B2384600F09D
:1005F00099F908B93D2C41D105F8017B4545EDD16C
:10060000FFF7BEFF02280AD00220204B1A68119B78
:100610005A404FF0000337D112B0BDE8F0816B466D
:1006200001AA242108A800F087F948B3009B1B2BDE
:1006300001D00220E9E79DF806209DF805301B0255
:1006400043EA02439DF8042013437360182009F025
:100650009BFE0446B060A8B1DDF80700DDF80B1082
:10066000DDF80F20DDF813300FC4DDF81700DDF8DA
:100670001B1003C40020C8E70220C6E70120C4E71E
:100680000320C2E70420C0E700F056FA8CDC000823
:100690002DE9F04782B00546D0F80480002400948C
:1006A0000121404609F02EFE019458B3074600F19F
:1006B000FF3926466B68B3422AD9FFF761FF04462B
:1006C000FF28F7DC03281FD05FFA80FA504600F0BD
:1006D00029F908B93D2C19D1013609F801AFE9E72C
:1006E0006B4601AA4146384600F082F930B1009BC2
:1006F0006B60019B23B12B6000240EE007240CE00B
:1007000005240AE005240BE0062406E0012404E0A9
:10071000FFF736FF0328E3D00624384609F03CFEF5
:10072000204602B0BDE8F08710B50446FFF728FF69
:100730000128FBD12046FFF735FF00B110BD204650
:10074000FFF7A6FFFAE7000030B583B004460023A8
:10075000019301AA4168006800F0C0F80546019BBA
:1007600083B10D4C0221204601F02CFEAAB2019962
:10077000204601F007FE0321204601F023FE002061
:1007800003B030BD636823B100280CBF09200820E6
:10079000F6E70820F4E700BF10000020F0B5A3B092
:1007A000054614461E46289F154B1B6821934FF0A3
:1007B000000301A80CF0C4F9337803F0070317F81D
:1007C00003E00DF103030DF1830C13F8011F8EEA12
:1007D000010119706345F8D1204609F0D5FD286064
:1007E000224601A90CF0ACF9054B1A68219B5A402E
:1007F0004FF0000302D1002023B0F0BD00F09CF9BF
:100800008CDC000870470000F0B5002962D08C46EF
:10081000033002F1040E1C1F2F4D2EE001F03F01AA
:100820002D48415C0EF8031C022B0BD03D210EF825
:10083000021C032B06D03D2302F8013C14B10CB17D
:1008400000231370F0BD01F03F01695C0EF8021C3B
:10085000032BF7D0002FEED016F8011C01F03F015A
:10086000695C02F8011C002CECD00330043B0EF153
:10087000040E043CBCF1030CE2D0002BE2D006468F
:1008800010F8031C72468F08EF5D0EF8047C012BF4
:10089000D8D00901BCF1010FC0D010F8027C01EBE7
:1008A000171101F03F01695C0EF8031C022BC9D03F
:1008B00010F8021C8900BCF10207C4D010F8017CBA
:1008C00001EB971101F03F01695C0EF8021C032B4C
:1008D000C2D1B7E71C46B2E74CDB00082DE9F04176
:1008E00016468C1C0E4BA3FB04346408A40004F1D0
:1008F0000108414504D9002414602046BDE8F08178
:1009000007460D46404609F03FFD0246306028B1DB
:10091000434629463846FFF777FFEEE74446ECE7C3
:10092000ABAAAAAA034B034493F84000C043C0F308
:10093000C01070474CDB0008F0B51E68012953D980
:1009400034462A4D12E0042903D1C2783D2A00D151
:100950000021341B1C60B1FA81F04009F0BD04296C
:10096000F6D0F6E7043004390129F2D990F800C036
:10097000AC449CF94070002FEBDB90F801C0AC4414
:100980009CF940E0BEF1000FE3DB34B14FEA2E1CCE
:100990004CEA870702F8017B013C0229D9D090F884
:1009A00002C0BCF13D0FCED0AC449CF940C0BCF1BC
:1009B000000FCEDB34B14FEAAC0747EA0E1702F85E
:1009C000017B013C0329C4D0C7783D2FC7D02F44F9
:1009D00097F94070002FBCDB002CC3D047EA8C177E
:1009E00002F8017B013CBDE73446B2E74CDB00086E
:1009F000F0B583B007460C4615461E464FEA910CEB
:100A00000CEB4C0C0CF10200019009F0BDFC2860CD
:100A100098B1024601AB21463846FFF78DFF0446E8
:100A200028B10EB1019B3360204603B0F0BD2868A9
:100A300009F0B2FC00232B60F6E70124F4E7BFF3D2
:100A40004F8FBFF36F8F4FF0E023D3F8943D002812
:100A50000CBF0122052213434FF0E022C2F8943D5F
:100A6000BFF34F8FBFF36F8F7047BFF34F8FBFF34D
:100A70006F8F4FF0E0230022C3F8942DBFF34F8F08
:100A8000BFF36F8F704710B584B004AB03E9070064
:100A900002460B469DF80C108E46092938BF4FF0D0
:100AA000090EB0F1805F0AD3B0F1804F32D3B0F1BC
:100AB000C04F2CBF4FF0070C4FF0050C01E04FF07A
:100AC000020C9DF80D4004F007044FF0E020C0F840
:100AD000984DD0F8A04D24F00104C0F8A04D22FAA2
:100AE0000EF202FA0EF2C0F89C2D180600F0B85073
:100AF0004FEA0C4289B10139490001F03E01C3F3CC
:100B0000C013034313430B434FF0E022C2F8A03D50
:100B100004B010BD4FF0060CD3E70021EFE74FF013
:100B2000E023D3F8283D13F0800F1CBF4FF0E023E3
:100B3000D3F8343DFEE70000BFF34F8F0549CA6884
:100B400002F4E062044B1343CB60BFF34F8F00BF4E
:100B5000FDE700BF00ED00E00400FA0510B5074C0A
:100B600023685B6A012180209847012384F83B3188
:100B700023689B6A18210020984710BD9C0C002018
:100B800030B583B00023ADF802309D4B5C88FFF791
:100B9000BDFC9C4B93F83E3113F0020F57D0E4B2EA
:100BA000974B5B780C2B00F26A81DFE813F086002C
:100BB0000D00680112016801D5005200FB004100E0
:100BC000E4006F00FE0065018D4B1B7803F003030A
:100BD000022B08D04BBB8B4A92F83E3123F0040322
:100BE00082F83E312CE0864B9888874B1B78042B8B
:100BF00000D048B900F00F02824B2C2101FB0233D8
:100C00001B7A13F0010F02D1FFF7A8FF18E07D490E
:100C10002C2303FB0212137A23F0040313720B68D4
:100C20005B6A0021C0B298470AE0FFF797FF07E030
:100C300074490B681B6B012201F23911002098479F
:100C4000704A92F83E3123F0020382F83E3103B03D
:100C500030BD6B4B998801AAC9B25888FFF762FC76
:100C600088B1674AD488844228BF0446654D2B6802
:100C70001B6B2246019900209847241AAC62019B05
:100C80000344EB62DCE7FFF769FFD9E75E4B1B78B3
:100C9000042B06D05C4B1B78032BD1D1FFF75EFFF2
:100CA000CEE75849564B9B8803F59C730A68146B32
:100CB000012219440020A047C2E7514B1B7813F0D2
:100CC000030312D14F4A92F83E31C3F38001C3F3BC
:100CD000C00343EA4103ADF8023013681B6B0222E4
:100CE0000DEB020100209847AAE7012B22D0022B2E
:100CF00024D1434B9B88444A1278042A00D0EBB994
:100D000003F00F033F4A2C2101FB0322127A12F059
:100D1000010F13D03B4A01FB03231B7AC3F380036B
:100D2000ADF8023013681B6B02220DEB02010020AC
:100D3000984785E7344B1B78042B02D0FFF70EFF52
:100D40007EE70020ADF802002E4B1B681B6B0222D1
:100D50000DEB0201984773E74CB92B4B02221A7036
:100D6000284B1B689B6900212046984768E7264B63
:100D700003221A70F4E7234B83F83941FFF7A2FBF3
:100D80001CB9214B03221A705AE71E4B93F83E31CF
:100D900013F0010F03D01C4B04221A7050E7FFF729
:100DA000DDFE4DE7FFF7DAFE4AE7174B1B78042B11
:100DB00007D0154B1B78032B7FF442AFFFF7CEFE15
:100DC0003EE70F4A91880F4B0B44528883F8382135
:100DD00036E7022C11D00C4B1B78042B16D00A4B93
:100DE0001B78032B06D12CB9054B1B7803F00303AA
:100DF000022B34D0FFF7B2FE22E7FFF7AFFE1FE76A
:100E0000241200209C0C00202012002054B1012C40
:100E10007FF416AF1B4A92F83E3143F0040382F888
:100E20003E310DE7184B988800F00F03154A2C212E
:100E300001FB0322127A12F0010F0DD011492C226E
:100E400002FB03131A7A42F004021A720B685B6AFF
:100E50000121C0B29847F3E6FFF780FEF0E60A4BA7
:100E60009B88DBB2002BC5D1064A137A43F00403FA
:100E70001372FFF773FEE3E6FFF770FEE0E6FFF79D
:100E80006DFEDDE69C0C00202412002010B50D4BF9
:100E900093F83B31022B0BD0032B12D1094C236862
:100EA0009B6A182120799847012384F83B3108E098
:100EB000044C23689B6A002108469847052384F860
:100EC0003B3110BD9C0C002010B50F4B93F83B310B
:100ED000042B02D0052B0DD010BDFFF751FE0A4C9C
:100EE00023681B6B0022114610469847032384F8A1
:100EF0003B31F1E7044C23689B6A1821207998471D
:100F0000012384F83B31E7E79C0C002010B5194C15
:100F10002368DB6A082218490020984794F83E317C
:100F200043F0020384F83E3108280FD1124BD988D0
:100F300069B1114B93F90030002B14DB0D4B0422E7
:100F400083F83B211B689B6A0020984710BD032350
:100F500084F83B31FFF714FE23681B6B0022114617
:100F600010469847F2E7034B022283F83B21FFF734
:100F700007FEEBE79C0C002024120020F8B509289E
:100F800046D8DFE800F05A52494C0545867E454672
:100F9000464B02221A70464B012283F83B2193F8FC
:100FA0003E2122F0040283F83E2100241E462C2517
:100FB00005FB04631A8922F010021A811A8922F0B3
:100FC00008021A811A7A22F004021A72002C6AD0DE
:100FD000D3B213F0010F0DD0354B2C2707FB04378C
:100FE0001B681B6A387998473B7A03F0FE0323F0AD
:100FF00002033B720134072CDAD12D4B002283F817
:10100000392183F838211A68926A18211879904793
:10101000F8BDFFF783FAFBE7FFF73EFAF8E7234B4B
:1010200001221A70FFF739FAF2E700201F4B1870FF
:101030001F4B1B681B6A9847EAE701251B4B1D7075
:101040001B4C4FF4A072002120460BF01DFA194BE7
:10105000236084F83B5104F5A07222624FF4807241
:10106000626204F510716161A2610322227221891A
:10107000402262F38C112181DB69002108469847E8
:10108000C6E70B4B93F83A21084B1A70FFF747FA63
:10109000BEE7064B1978064A82F83A1105221A7003
:1010A000FFF73EFAB4E7013482E700BF20120020C8
:1010B0009C0C002090DC0008F8B500F00F04494BB0
:1010C00093F83C6193F83D5183F83C4120F07F0058
:1010D00083F83D01012913D0022937D039B92C22D8
:1010E00002FB04331A8922F008021A812CB13D4B0D
:1010F00083F83C6183F83D51F8BDFFF707FFF6E741
:10110000384B2C2202FB04331A8942F020021A8148
:10111000DB6863B9334B2C2707FB043700223A61A5
:101120001B68DB6ABA69796938799847F8602D4994
:101130002C2303FB04131A8922F008021A8191F868
:101140003C31002BD3D1FFF7BFFED0E7254B2C223B
:1011500002FB04339A6A002A33D1224B2C2202FB71
:101160000433187910F00F0F1AD11E4B02FB043311
:10117000DB69ABB11C4AD288934211D0194A2C21A9
:1011800001FB04221289C2F38612B3FBF2F102FBC7
:1011900011332BB9134B1B681B6B00221146984768
:1011A000104B2C2202FB04340021E161228961F3FF
:1011B0000412228193F83C31002B98D1FFF766FE90
:1011C00095E7084B2C2101FB04341B681B6BE16A7B
:1011D00020799847A36A1B1AA362E36A0344E36277
:1011E0008AE700BF9C0C00202412002038B5054679
:1011F000174C4FF4A072002120460BF045F9154B17
:1012000000221A70144B2360012284F83B2104F55C
:10121000A07222624FF48072626204F51071616103
:10122000A261032222722289402161F38C12228161
:101230005B682846984738B92368DB69402200215B
:1012400008469847002038BD4FF0FF30FBE700BF4D
:101250009C0C00202012002090DC000808B5044BF4
:101260001B68DB6B9847003818BF012008BD00BF22
:101270009C0C002000F00F0C10F0800F054B4FF07D
:101280002C0000FB0C3319BF19625A6259619A6134
:10129000704700BF9C0C00202B4B03EB8003D3F85E
:1012A000C4311B6813F4004F00D17047264B342221
:1012B00002FB00335B6A002BF7D0F0B5224BD3F86A
:1012C000E0518F0838D04FEA870E00231E4A34249D
:1012D00004FB002C2C68DCF82420D4500433734524
:1012E000F8D111F0030F1CD021F003032E689942AE
:1012F00017D94FEA870CC3EB87050D440022124B28
:10130000342404FB003EFF27DEF8244007FA02F3F2
:101310003340D34004F80C3008320CF1010CAC45DA
:10132000F2D1094B342202FB0033DA6A0A44DA6252
:101330005A6A0A445A62F0BD11F0030FF1D021F04D
:1013400003032E68D5E700BFDC0F002082B0002326
:101350000193019B43F020030193019B60F38A13E7
:1013600001930C4BD3F8A031019A1A614FF47A73B0
:10137000013BFDD1074BD3F8A02113690193019BD9
:1013800013F0200FF9D14FF47A73013BFDD102B075
:10139000704700BFDC0F002082B000230193019B47
:1013A00043F0100301930B4BD3F8A0210199116175
:1013B000D3F8A0214FF47A73013BFDD11369019357
:1013C000019B13F0100FF5D14FF47A73013BFDD15F
:1013D00002B07047DC0F002010B40021046B836A58
:1013E0008268C2F31202A4EB030C94458CBF9B18D5
:1013F00023468362027812F00F0F2CD1012363F38E
:10140000D44141F0C04164F306011C4BD3F80832CB
:101410005B7B4BB9027802F00F02184B03EB82039F
:10142000D3F8C431426A5A61144A037803F00F03B7
:1014300002EB8303D3F8C4311961037803F00F037F
:1014400002EB8302D2F8C421136843F00443136013
:101450005DF8044B70471BB9012363F3DC41D4E70B
:10146000C26A9B1A4468C4F3C624621E1A44B2FBC3
:10147000F4F262F3DC4163F31201C6E7DC0F0020F3
:1014800070B40025027802F00F0202F16A012E4BBF
:1014900053F821301C68036B866A8168C1F312011E
:1014A000A3EB060C8C4528BF73188362ABB90123EC
:1014B00063F3DC45244A037803F00F036A3352F8E0
:1014C00023301D6144F00444037803F00F036A33B2
:1014D00052F823301C6070BC7047017811F00F0F78
:1014E00020D1012161F3DC45C16A591A61F312056B
:1014F000154BD3F80832597B29B96A32124951F891
:101500002220416A51615B7B012BD3D10E4BD3F872
:10151000A4114E6B027802F00F0201239340334373
:101520004B63C7E7C66A991B61F312054168C1F3B3
:10153000C6219B1B4E1EB6B216FA83F393FBF1F342
:1015400063F3DC45D4E700BFDC0F002040F2DF107E
:1015500070470000044BD3F8A421536823F0020322
:1015600053600020704700BFDC0F0020044BD3F80D
:10157000A421536843F0020353600020704700BF6A
:10158000DC0F002000F00F03144A342000FB03227C
:10159000526812F0100F1ED1104A00FB032212797C
:1015A00012F0040F01D10120704710B50B484FF025
:1015B000340C0CFB03025469A14228BF214611637D
:1015C0000024D4629462D168516214611046FFF71E
:1015D00003FF204610BD0120704700BFDC0F002034
:1015E000044BD3F8A4311A6811B960F30A121A60D7
:1015F00000207047DC0F002000F00F028C4651B332
:1016000010F0800F18D1274B342102FB01F1595CF7
:1016100001F00F0103EB8103D3F8C4110B6843F40D
:1016200000130B601F4B342101FB02331A796CF35A
:1016300045121A71002070471A49342302FB03F344
:10164000CB5C03F00F036A3351F823100B6843F4AB
:1016500000130B60E6E710F0800F11D1114B34211D
:1016600002FB01F1595C01F00F0103EB8103D3F898
:10167000C4110B6823F4001343F080530B60D1E7CF
:101680000849342302FB03F3CB5C03F00F036A33F6
:1016900051F823100B6823F4001343F080530B60C0
:1016A000C0E700BFDC0F002000F00F00342300FB78
:1016B00003F3124AD356002B16DB104B342202FBE5
:1016C00000335A6822F010025A600C4B342202FB9D
:1016D00000331A7922F020021A71002018619861F3
:1016E0009862D862186370471346342202FB0033B5
:1016F0005A6822F008025A60E7E700BFDC0F0020BA
:1017000000F00F00404BD3F8A421D269342101FB33
:1017100000331B7913F0040F74D0F0B514463A4E21
:1017200001FB00FC06EB0C0316F80C1001F00F0196
:1017300001258D4093F804E00EF0FB0E2EF0200EF4
:1017400083F804E05F6827F010075F605F6827F0A8
:1017500008075F6016F90C30002B07DB3346342690
:1017600006FB00331B7913F0030F17D1264E6A31A5
:1017700056F821304FF09041196022EA050363F3D7
:101780000F04342300FB03F3F356002B06DA342155
:1017900001FB00631B7913F0030F18D11A4934239E
:1017A00000FB03F3CB5C03F00F0301EB8303D3F8DF
:1017B000C4314FF090461E60C2F30F4222EA050288
:1017C00062F31F44D1F808325B7B012B13D00E4B20
:1017D000D3F8A421D461342202FB00308288C2F302
:1017E000831201219140B3F8FC2122EA0102A3F8FF
:1017F000FC210020F0BDD1F8A421536B23EA05039E
:101800005363E4E701207047DC0F0020034BD3F85B
:10181000A4319868C0F30D20704700BFDC0F002092
:10182000044B93F8FE0100F00500052814BF0020CA
:1018300001207047DC0F002008B50748D0F8A4212C
:10184000536843F0020353604FF4027200210AF020
:101850001BFE002008BD00BFDC0F00202DE9F04F6B
:1018600083B005460F461446DFF85C92D9F8A431E0
:10187000DB6901939A4600F00F08342202FB08FB53
:1018800009EB0B06002130460AF0FEFD09F80B506B
:10189000337943F004033371736864F3D1237360C5
:1018A000002D00F0DB803046B6684FF6C07C6CF34C
:1018B0001206866019F80B3003F00F03814901EB23
:1018C0000326C66101F5E06101EB0321C16009EB6C
:1018D0008302D2F80C120162D2F82822426115F07C
:1018E000800F00F0D5806A33774A52F82350296878
:1018F00041F4004167F39341002F00F0A08064F3AE
:101900000A0141F0805121F400116F4BB3F8FC0142
:1019100000230122024216D0520092B20133DBB200
:10192000072BF7D102420ED0002310E0402CE8D163
:101930006FF30A01E5E7012363F30A01E1E70323FB
:1019400063F30A01DDE710435F4AA2F8FC0103F0EC
:101950000F035D48342202FB08F28618B6F804C073
:1019600063F3891CA6F804C063F399512960815C74
:1019700001F00F0101238B40019D2B4363F30F0AFC
:101980008356002B28DB504B03EB8103D3F8C42193
:10199000136843F4004367F393437FB364F30A038C
:1019A00043F0805323F400131360342303FB08F344
:1019B000454AD25C02F00F0201239340019A43EAA8
:1019C000124363F31F4A404BD3F8A431C3F81CA061
:1019D000002003B0BDE8F08F002FF4D13A4B342241
:1019E00002FB08F29A5C02F00F0203EB8203D3F8C9
:1019F000C421136843F4004323F44023202C0DD06A
:101A000007D8082C0ED0102CCAD1022161F30A038A
:101A1000C6E7402CC4D16FF30A03C1E7012161F38B
:101A20000A03BDE7032161F30A03B9E76A33264AD3
:101A300052F82350296841F4004121F44021202C20
:101A40003FF479AF3FF672AF082C3FF478AF102C1B
:101A50007FF457AF022363F30A0152E71A4A9368EF
:101A6000402161F312039360137803F00F031549CB
:101A700001EB0320D06101F5E06101EB0321D160AE
:101A800002EB8301D1F80C021062D1F828125161E7
:101A9000002FCBD0342303FB08F30B4AD356002B83
:101AA00091DB094B342202FB08F29A5C02F00F0230
:101AB00003EB8203D3F8C421136843F4004367F3B4
:101AC00093436BE700000030DC0F002070B5064642
:101AD00008460D4C342303FB064423699A4228BF71
:101AE0001A461546E168A36919440BF029F82369E1
:101AF0005B1B23610BB1A3692B44034A342101FB17
:101B000006229361284670BDDC0F00202DE9F041CC
:101B100000F00F04164B342000FB04331B7913F044
:101B2000040F22D0124B00FB04335B6813F0080F44
:101B300001D000201AE00E4F00FB04752B6A9A4278
:101B400028BF1A461646E8690AF0FAFFEB696B628D
:101B50002E630023AB62EB626B6843F008036B609B
:101B60002846FFF78DFC286B00E00120BDE8F081DE
:101B7000DC0F0020007BD0B110B584460020034666
:101B80000B4C34214FF0010E03E0704601336345E6
:101B90000CD001FB0342526812F0080FF5D101FB93
:101BA00003425268C2F300121043EFE710BD7047C2
:101BB000DC0F002070B500240A4E96F8FE5105F0A7
:101BC0000105FFF7D7FF96F8FE31C3F3800363F3F7
:101BD000000465F3410460F38204012363F3C40449
:101BE000204670BDDC0F002008B5034801F0F6F870
:101BF00001F032FB08BD00BF8000002038B504466C
:101C0000FFF7F2FF4048C0F8084200F5097300F5FD
:101C1000027100F51070402243F8042F41F8042FA0
:101C20008342F9D1384D4FF40272002128460AF060
:101C30002BFC6368C5F80032A368C5F8043221683C
:101C4000C5F8A01101F50063C5F8A43101F51062D3
:101C500005F5D27305F5E07043F8042F2032834276
:101C6000FAD101F53062294B05F5EE7043F8042FE7
:101C700020328342FAD101F58052254B05F5FC75DF
:101C800043F8042F02F58052AB42F9D18A6842F042
:101C90008102637BB3FA83F35B0963F345128A60C5
:101CA000194DD5F8A021D36843F0804343F48073E5
:101CB000D360D5F8A421136843F0030323F4000391
:101CC0001360D5F8A421536843F002035360102039
:101CD000FFF73CFBFFF760FBD5F8A03100229A61CB
:101CE000D5F8A0314FF0FF325A610A4B627B012ACE
:101CF0000CBF0122002262F3041343F44023D5F801
:101D0000A0219361002038BDDC0F00209C11002031
:101D1000B81100200E3C00C008B5034801F052F88D
:101D200001F0A2FA08BD00BF8000002000230D28AA
:101D30000AD8DFE800F0070909090E091114171A7B
:101D40001C1F09224FF080430D4AD2F8A021536195
:101D500070474FF48053F7E74FF40063F4E74FF018
:101D60000043F1E74FF00043EEE70823ECE74FF4C0
:101D70008063E9E74FF40053E6E74FF40023E3E71D
:101D8000DC0F00206A31024B53F821309860704715
:101D9000DC0F0020034B03EB8103D3F8C4319860C0
:101DA000704700BFDC0F0020034BD3F8A421536918
:101DB00003435361704700BFDC0F0020034BD3F88F
:101DC000A421136903431361704700BFDC0F002097
:101DD0002DE9F04F85B08346944BD3F8A0319D692F
:101DE0005C692C405FFA84FA14F0080F07D08F4B1F
:101DF000D3F80032092098470920FFF797FF9BF896
:101E00000D30012B3BD0C4F3072514F4806F5CD157
:101E100015F0080F07D0854BD3F8003206209847FD
:101E20000620FFF783FF260E002C52DB16F0400F32
:101E30000DD07E4B93F8FE2142F0040283F8FE2180
:101E4000D3F80032002098470020FFF76FFF15F00D
:101E5000100F47D115F0200F40F0B480C4F30745B0
:101E600014F4802F40F0CA8015F0080F40F08E81E6
:101E70001AF0040F40F0228205B0BDE8F08F1AF08E
:101E8000100FC0D025F01005684BD3F8A021956144
:101E9000D3F8A031186AC0F34343022B08D0062BB5
:101EA0000CD1C0F30A1100F00F00FFF7F5F905E0BF
:101EB000C0F30A1100F00F00FFF7EEF945F010052E
:101EC0005A4BD3F8A0319D619DE70A20FFF72EFF02
:101ED0009EE7564BD3F80032082098470820FFF7BA
:101EE00025FFA3E75148D0F8A421536843F001032C
:101EF000536000F5E07200F5EE7052F8041F0B68B5
:101F000043F0006323F400130B608242F5D1474E87
:101F1000D6F8A03140225A62D6F8A03102F58012DC
:101F20009A62D6F8A0311032C3F80421D6F8A03155
:101F30001032C3F80821D6F8A0311032C3F80C21B2
:101F4000D6F8A0311032C3F81021D6F8A0311032E3
:101F5000C3F81421D6F8A0311032C3F8182110208C
:101F6000FFF7F4F90020FFF7F1F9FFF715FAD6F8BB
:101F7000A4314FF00112DA610F20FFF715FF0F2097
:101F8000FFF71CFFD6F8A421136823F4FE63136047
:101F90009BF80D30012B10D0244B5A6822F0100210
:101FA0005A605A6822F008025A60D3F800320420BE
:101FB00098470420FFF7BAFE4CE7D6F8A431002278
:101FC0005A63E9E7194DD5F8A82113686FF30A039E
:101FD000136095F8FE3143F0050385F8FE31D5F81E
:101FE000003202209847D5F8A021D368092161F377
:101FF0008D23D3600B20FFF799FE2FE70B4BD3F80F
:10200000A4319A6919691FFA82F8B8F1000F00F03B
:10201000B9804346002201921446044F4FF0340920
:10202000CDF808A003950D4692462CE0DC0F002069
:10203000012940F05A8116F0800F52D116F0010F9D
:1020400016D009FB0A731A6B9B6A9A4240F0928081
:1020500009FB0A72536823F0080353609BF80D30A4
:10206000012B7CD0D7F80432022144F0800098473D
:102070000AF16A0A57F82A309E600134E4B2A24697
:1020800058FA04F37BD013F0010FF6D00AF16A037B
:1020900057F823209168D7F8A4315E6B09FB0AF347
:1020A000FB5C03F00F03DE40F601F6B22E430E4058
:1020B0009BF80D100029BBD11369019316F0010F95
:1020C000D6D0019B33F06043BBD18A4B342202FB54
:1020D0000A33986ADA6A811AD8625A6A0A445A62DA
:1020E000AFE7844A03F16A0152F82110896934206C
:1020F00000FB0A22906AD26AB0EB020E1CD00EF1ED
:102100000302900889B2B1EB920F3CBF4FEA810EF7
:10211000084688B17833774A52F823C00021342327
:1021200003FB0A22536A1B68CCF800300131536A62
:10213000043353628142F5D16E4B342202FB0A33E1
:10214000DA6A7244DA625A6A72445A6216F0010F0D
:102150008ED09BF80D30002B7FF473AFB1E7654B49
:10216000D3F8A4114B6B012202FA0AF223EA02030C
:102170004B6377E709FB0A70FFF782F978E7DDF830
:1021800008A0039D0E20FFF7D1FD6DE6594BD3F853
:10219000A4219169D369526900200190C3F30F48CB
:1021A00018EA114800F08680434604460546514F20
:1021B0004FF03409CDF80CA0029226E04D4B3422AA
:1021C00002FB05331A69D96A0A441A6145E009FB22
:1021D00005731A6B9B6A9A4265D109FB0573DA6A2B
:1021E0001A615A6822F010025A60D7F804320121AD
:1021F0002046984707EB8505D5F8C4319E60013429
:10220000E4B2254658FA04F352D013F0010FF6D089
:1022100007EB8503D3F8C4319E68029A16409BF8F9
:102220000D200AB91B6901935FFA86FA16F0080FB0
:1022300024D009FB0572137923F0200313719BF856
:102240000D3033B9019BC3F34173C3F10303DB00CA
:1022500013619BF80D30012BB0D009FB0572536858
:1022600023F010035360D7F8043200210846984742
:1022700007EB8503D3F8C43108229A601AF0010FE6
:10228000B8D09BF80D30002BA1D109FB0573019A42
:10229000C2F312019A6A521AD96A511ADA625A6A58
:1022A0000A445A6293E709FB0570FFF795F8A1E726
:1022B000DDF80CA00D20FFF739FDD9E50D4BD3F863
:1022C000A0315C6814F0040F0AD00A4B93F8FE2189
:1022D00022F0040283F8FE21D3F80032012098474F
:1022E000044BD3F8A0315C60C6E516F0010F3FF453
:1022F000BFAEA6E6DC0F002010B504460023436104
:102300008361C361022383710373032383740121F7
:10231000023000F0C3FB034608B9184610BD012186
:1023200004F1080000F0BAFB03460028F5D00121B3
:1023300004F10E0000F0B2FB0346EEE70F4B1B78F2
:10234000042B16D110B50C468369A3B183780C4ACF
:1023500003F00F0182F83C1123F07F0382F83D3136
:1023600020460AF08DFC002281B2204601F0ACFA32
:1023700010BD022070470220FAE700BF20120020A3
:102380009C0C002008B50346084611460B4A1278FB
:10239000042A0FD19A697AB19B78094A03F00F0C8D
:1023A00082F83CC123F07F0382F83D31002201F026
:1023B0008BFA08BD0220FCE70220FAE72012002079
:1023C0009C0C0020114B1B78042B1AD110B50C4625
:1023D0008369C3B183780E4A03F00F0182F83C1180
:1023E00023F07F0382F83D3100F0DAFA20B900F0E3
:1023F0007BFA00F0FBF918B9204600F0F1FA002052
:1024000010BD022070470220FAE700BF2012002012
:102410009C0C002010B51C4B1B78042B2FD183691A
:1024200083B3827802F00F01184B83F83C1122F03D
:102430007F0283F83D212C2202FB013393F9043003
:10244000002B08DB114B2C2202FB0133DB689BB213
:1024500033B9002414E00D4B02FB0133DB69F6E7CE
:1024600000F09EFA044600F03FFA0CB1002407E0A9
:1024700000F0BCF9044618B900F036FA00E0022476
:10248000204610BD0224FBE7201200209C0C0020F7
:1024900008B5104B1B78042B1BD18369CBB1827814
:1024A00002F00F010C4B83F83C1122F07F0283F8FD
:1024B0003D212C2202FB01339B6813F0100F08D141
:1024C000054B02FB01331B7A13F0020F01D0FFF71B
:1024D000A1FF08BD201200209C0C002010B51A4B53
:1024E0001B78042B28D183694BB3027A02F00F01C9
:1024F000164B83F83C1122F07F0283F83D212C22F9
:1025000002FB01339B6813F0200F1AD00F4B02FB24
:10251000013393F90430002B09DB0C4B2C2202FB16
:102520000133DC68A4B244B900F0B0F905E0074B10
:1025300002FB0133DC69F5E70024204610BD0024CE
:10254000FBE70024F9E700BF201200209C0C0020CC
:1025500010B52C4B1B78042B4AD18369002B4AD031
:10256000017A01F00F02284B83F83C2121F07F0112
:1025700083F83D1111462C2000FB02339B6813F0B9
:10258000200F3BD0204B00FB023393F90430002B8B
:1025900010DB1D4B2C2000FB02339B89BBB94FF095
:1025A000FF34194B2C2202FB0133DB689BB2E3B1F1
:1025B000204610BD144B00FB02339B8B3BB94FF000
:1025C000FF34114B2C2202FB0133DB69EEE700F0F4
:1025D0001DFA04B20C4B93F83C112C2202FB013380
:1025E00093F90430002BDCDAEBE700F04FF9DFE77A
:1025F0004FF0FF34DCE74FF0FF34D9E74FF0FF3402
:10260000D6E700BF201200209C0C0020144B1B7842
:10261000042B23D110B582B0044683690BB902B0F4
:1026200010BD837B0F4A03F00F0182F83C1123F0A9
:102630007F0382F83D310C4A92E80300CDE90001A6
:1026400000220821684601F03FF90022022104F12E
:10265000160001F039F900F047F9E0E7704700BFD4
:10266000201200209C0C0020D0DC0008704770472E
:1026700070470000474B93F83E3113F0020F00F013
:10268000888010B50446444B9A8803789A425ED1FC
:10269000414B5B78203B032B59D8DFE803F029023C
:1026A00054693D4B1B78A12B51D13A4A92F83E31E7
:1026B00023F0020382F83E3192F83C312C2101FBD9
:1026C0000322936813F0100FFBD1137A13F0020F5B
:1026D000F7D0A06900F0B2F9207F00F081F9607FA7
:1026E00000F07EF9A07F00F07BF900F0FDF82EE00D
:1026F000294B1B78212B2AD1264A92F83E3123F010
:10270000020382F83E3192F83C312C2101FB032276
:102710002249936813F0200F03D10B78002BF8D1D6
:1027200015E000F0A3F9A06100F070F9207700F047
:102730006DF9607700F06AF9A07700F0A7F82046FD
:10274000FFF794FF03E0144B1B78212B00D010BD42
:10275000104A92F83E3123F0020382F83E310E4ACD
:102760009378D27843EA02238382FFF780FFEEE773
:10277000094B1B78212BEAD1064A92F83E3123F00F
:10278000020382F83E31044B5988C9B2FFF770FF4B
:10279000DDE770479C0C002024120020201200204E
:1027A000104B1B78EBB110B50F4B93F83D4193F8EC
:1027B0003C211443002283F83C2183F83D2193F807
:1027C0003E3113F0020F09D1074B04F00F0283F8DA
:1027D0003C2124F07F0483F83D4110BDFEF7D0F981
:1027E000F2E77047201200209C0C00202DE9F041F8
:1027F000244B1B689B6B984706466427214C2C256D
:10280000DFF8848001E01F46064694F83C3105FB62
:10281000034292F90420002A1DDB05FB0342926863
:1028200012F0200F26D198F8002002F0FF011AB311
:10283000052923D005FB03431B7A13F0040F1FD196
:1028400023689B6B98478642DED07B1EDBB2002F4D
:10285000D9D104200CE005FB0342926812F0100F5E
:10286000E1D105FB0342127A12F0020FDBD0002007
:10287000BDE8F0810020FBE70220F9E70320F7E73D
:102880000120F5E79C0C00202012002038B5154BE4
:1028900093F83C512C2202FB05331B7A13F0020FF4
:1028A0001ED0104B02FB05341B68DB6AA26961690C
:1028B00020799847E06000232361A36813F0080F94
:1028C0000ED168B9074A238943F00803238123897D
:1028D00023F02003238113689B6AA169207998471C
:1028E00038BD00BF9C0C0020F8B52A4B93F83C5132
:1028F0002C2202FB05339B6813F0100F2ED1254BC1
:1029000002FB05331B7A13F0020F27D0214A2C2437
:1029100004FB0524238943F010032381236AE36227
:10292000E369A3620023E3611B4E4FF40067C6F81E
:102930008C70BFF34F8FBFF36F8F13681B6BA26A4E
:10294000E16A20799847E36A0344E362A36A1B1AA9
:10295000A362F760114B1B78012B00D0F8BD2079E2
:1029600010F00F0FFAD02246936813F0100FFBD12E
:10297000084A2C2303FB05252B8943F010032B81E8
:1029800013681B6B0022E96A9847044B00221A70F7
:10299000E4E700BF9C0C002000E100E0B012002042
:1029A0000E4B93F83C212C2101FB023393F90430A8
:1029B000002B08DB094B2C2101FB0233D8680038BF
:1029C00018BF01207047054B01FB0233D8695B6AD1
:1029D00098422CBF00200120704700BF9C0C0020B3
:1029E000094B93F83CC12C2202FB0C33DA695B6A79
:1029F0009A42FDD2044B2C2101FB0C33196A8854F6
:102A0000DA690132DA6170479C0C00200A4B93F8B6
:102A10003C012C2202FB0033DA68002AFDD0064B71
:102A20002C2101FB003319695869405C013119619F
:102A3000013ADA60704700BF9C0C00200A4B93F803
:102A40003CC12C2202FB0C33DA695B6A033B9A42DD
:102A5000FDD2054B2C2101FB0C33196A8850DA6931
:102A60000432DA61704700BF9C0C00200A4B93F8D7
:102A70003C012C2202FB0033DA68032AFDD9064B05
:102A80002C2101FB00331969586940580431196140
:102A9000043ADA60704700BF9C0C002069B32DE94E
:102AA000F041044601EB410300EB4308154E2C278F
:102AB00002E0063444451ED0207800F00F0533684C
:102AC000DB69628821799847C8B9237807FB0562DA
:102AD00013711389618861F38C13138143F003032D
:102AE0001372207894F90030002BE2DB33689B6A84
:102AF00091699847DDE7012002E00120704700203E
:102B0000BDE8F0819C0C002010B5044601F0BEFC2D
:102B1000074B1A68074BA3FB0232920C04FB02F22C
:102B200022B1002300BF01339A42FBD110BD00BF88
:102B3000C0FF002083DE1B43024AD36F0343D367E9
:102B4000704700BF00400050024AD36F23EA0003E1
:102B5000D367704700400050034AD2F884300343E3
:102B6000C2F88430704700BF00400050014B986F9E
:102B7000704700BF00400050014BC3F88000704711
:102B800000400050024B186900F47060704700BFAD
:102B900000400050014B1861704700BF00400050DA
:102BA0008000014B185870472C4000508000014BAA
:102BB000195070472C400050800000F1A04000F5F3
:102BC0008040D0F8A02001238B401343C0F8A030F0
:102BD0007047800000F1A04000F58040D0F8A030A0
:102BE00001228A4023EA0203C0F8A03070470000A7
:102BF000C90241EA001141F40801024BC3F88C10EC
:102C0000704700BF00400050034AD2F88C3023F0D8
:102C10000103C2F88C30704700400050034AD2F8DC
:102C20008C3043F00103C2F88C30704700400050F4
:102C3000034BD3F88C00C04300F00100704700BF85
:102C400000400050024BD3F89000C0F38030704732
:102C50000040005008B5FFF7EBFF28B1044BD3F854
:102C60009000C0F3090008BD6FF00040FBE700BF13
:102C700000400050024BD3F89000C0F3C0307047C2
:102C80000040005010B5FFF7D3FF0446FFF7F2FFF6
:102C900050B984F00100C0B2044AD2F88C3043F03D
:102CA0000203C2F88C3010BD0220F5E7004000504E
:102CB000000400F4702040F00100064BC3F8CC1073
:102CC000C3F8C8001A46D2F8C43013F4005FFAD132
:102CD000704700BF00400050000400F47020064B15
:102CE000C3F8C8001A46D2F8C43013F4005FFAD112
:102CF000014BD3F8CC00704700400050024A936E5D
:102D000023EA00039366704700410050024A936E25
:102D100003439366704700BF00410050014B586E5B
:102D2000704700BF00410050014B1867704700BF5B
:102D300000410050014BD866704700BF0041005071
:102D4000024A136D03431365704700BF00410050F2
:102D5000014B186D704700BF00410050024AD36B11
:102D60000343D363704700BF00410050024AD36B56
:102D700023EA0003D363704700410050024A536CBA
:102D800003435364704700BF00410050024A536C34
:102D900023EA00035364704700410050034AD2F80D
:102DA00088300343C2F88830704700BF00400050AD
:102DB000034AD2F8883023EA0003C2F8883070470B
:102DC00000400050030F03EB430320F07040024A21
:102DD00042F82300704700BF10440050030F03EB7C
:102DE000430320F07040024A42F82300704700BFBE
:102DF00014440050030F03EB4303054A52F82330F9
:102E0000184020F07040003818BF0120704700BF04
:102E10000C44005008B5054BDB6913F0010F01D0DD
:102E2000034808BD01F02EFBFBE700BF0047005040
:102E300000366E0108B5FFF7EDFF0F4B1B6913F06D
:102E4000010F07D00C4B9B6903F07F030133B0FBEC
:102E5000F3F008BD084B9A6999699B69C1F3062193
:102E600001FB0000C2F30362C3F30643013302FB1C
:102E70000333B0FBF3F0ECE70047005008B501F076
:102E800001FB094B1B6A13F0010F0CD1064B5A6A68
:102E90005B6AC2F3062202FB0000C3F30363013343
:102EA0005B00B0FBF3F008BD00470050054B1A690A
:102EB0001B6A02F0010204490868904003F0010314
:102EC000D840704700460050C0FF002008B5094BAD
:102ED0009B6913F4803F09D0FFF7ACFF054B9B695A
:102EE00003F007030133B0FBF3F008BDFFF7C6FFA3
:102EF000F4E700BF0046005008B5FFF79BFF044B06
:102F0000DB6903F03F030133B0FBF3F008BD00BF02
:102F10000046005008B50D4B586A00F44030B0F53B
:102F2000003F0DD078B1B0F5803F14BF00200120E4
:102F3000C003064B5B6ADBB20133B0FBF3F008BDA4
:102F4000FFF778FFF5E70248F3E700BF00460050BF
:102F500000366E0108B5134B9B6A03F00303032B85
:102F600008D08BB90F4B1B6903F001030E4A1068A0
:102F7000984008BDFFF75EFF0A4B9B6AC3F3084306
:102F80000133B0FBF3F0F4E7022B01D00020F0E7AF
:102F9000FFF774FF034B9B6AC3F308430133B0FB95
:102FA000F3F0E6E700460050C0FF0020034B5B69EA
:102FB00003F00103024A1068D840704700460050F1
:102FC000C0FF0020034AD36823F480330343D36057
:102FD000704700BF00460050034A936923F48033D2
:102FE00003439361704700BF00460050034A536A91
:102FF00023F4403303435362704700BF0046005040
:10300000034A936A23F0030303439362704700BFAC
:103010000046005038B9084AD36923F4807323F07E
:103020000103D3617047044AD36943F4807343F0CA
:103030000103D361704700BF00470050064AD2F831
:10304000C43013F0080FFAD1044AD36823F04003C8
:103050000343D360704700BF00400050004300505E
:10306000064AD2F8C43013F0080FFAD1044AD368E4
:1030700023F080030343D360704700BF004000503B
:1030800000430050034AD36823F0FF030138034391
:10309000D360704700460050034A136A23F00103CF
:1030A000013803431362704700460050034A136916
:1030B00023F00103013803431361704700460050B9
:1030C000034A536923F001030138034353617047F6
:1030D00000460050034A936923F007030138034375
:1030E0009361704700460050034AD36923F03F03C1
:1030F00001380343D361704700460050034A536AC6
:1031000023F0FF0301380343536270470046005029
:10311000044A936A01386FF3184343EA0043936209
:10312000704700BF00460050014B5860704700BF19
:1031300000460050014B9860704700BF00460050A9
:10314000034B1B681840003818BF0120704700BFB0
:1031500000460050064B5B69DBB207EE903AF8EE92
:10316000677A9FED047A67EE877A17EE900A7047C8
:1031700000420050ED0DBE3B074B5B69C3F30723D4
:1031800007EE903AF8EE677A9FED047A67EE877A59
:1031900017EE900A704700BF00420050EC51B83C57
:1031A000034A536A23F4803323F0020353627047C7
:1031B00000470050034A536A43F4803343F002034C
:1031C0005362704700470050104B5A6A42F00102A8
:1031D0005A625A6A42F010025A62013901380006F6
:1031E00040EA012058625A6A42F040025A625A6A22
:1031F00022F010025A625A6A42F480225A621A4637
:10320000136A13F0040FFBD0704700BF0047005053
:10321000014B024A5A627047004700500300010008
:1032200010B50C4A536943F480135361012803D04D
:103230006420FFF769FC10BD1446536923F4801322
:1032400053616420FFF760FC636943F4002363610A
:10325000EEE700BF00470050024B4FF440325A6087
:10326000704700BF00420050024B4FF440329A605A
:10327000704700BF00420050024B186AC0F3800044
:10328000704700BF004700500D4B1B6813F0010F43
:1032900007D10B4B01225A601A46136813F0010F35
:1032A000FBD0084B1B6813F4007F08D0054B4FF48C
:1032B00000729A601A46136813F4007FFBD17047BE
:1032C0000042005000440050044B01229A6003F574
:1032D00000734FF400725A60704700BF0042005004
:1032E000064B1B6813F0010F06D0054B1868C0F39E
:1032F000402080F0010070470020704700420050DD
:1033000000440050054AD2F8C43013F0200FFAD11F
:10331000034A536923F00103536170470040005092
:1033200000430050054AD2F8C43013F0200FFAD100
:10333000034A536943F00103536170470040005052
:1033400000430050044AD2F8C43013F0020FFAD1FF
:10335000024B5860704700BF0040005000430050CF
:10336000044AD2F8C43013F0040FFAD1024B98602B
:10337000704700BF0040005000430050054AD2F89B
:10338000C43013F0080FFAD1034BDA681043D86049
:10339000704700BF0040005000430050054AD2F87B
:1033A000C43013F0080FFAD1034AD36823EA0003AC
:1033B000D36070470040005000430050054AD2F8E7
:1033C000C43013F0080FFAD1034AD36843F0100356
:1033D000D3607047004000500043005000B1704778
:1033E00008B5FFF7EBFF08BD094AD2F8C43013F067
:1033F000080FFAD128B9074AD36843F48073D36021
:103400007047044AD36823F48073D360704700BFC9
:10341000004000500043005010B40A4AD2F8C430B3
:1034200013F0080FFAD1084CE36880004FF47022C3
:10343000824023EA020381400B43E3605DF8044BC2
:10344000704700BF004000500043005010B4094ACC
:10345000D2F8C43013F0080FFAD1074CE3684FF4E8
:103460008052824023EA020381400B43E3605DF80F
:10347000044B70470040005000430050094AD2F806
:10348000C43013F0080FFAD128B9074AD36843F4BF
:103490008063D3607047044AD36823F48063D360A9
:1034A000704700BF0040005000430050064AD2F869
:1034B000C43013F0080FFAD1044AD36823F48063B0
:1034C0000343D360704700BF0040005000430050EA
:1034D000044B1868C0F3C00080F0010000F0010048
:1034E000704700BF00430050134AD2F8C43013F0B5
:1034F000800FFAD1114AD36923F03003D361A2F5CA
:103500004072D2F8C43013F0080FFAD10B4AD368D6
:1035100043F00803D360A2F54072D2F8C43013F030
:10352000040FFAD1054B08229A60034AD2F8C4303E
:10353000002BFBD1704700BF0040005000430050FB
:10354000054AD2F8C43013F0800FFAD1034AD36988
:1035500043F03003D36170470040005000430050F7
:10356000054AD2F8C43013F0800FFAD1034AD36968
:1035700043F03103D36170470040005000430050D6
:10358000064AD2F8C43013F0800FFAD1044AD36946
:1035900023F0310343F02003D36170470040005013
:1035A00000430050024B986900F00100704700BFD3
:1035B0000043005038B50C4D6B6923F480336B61C8
:1035C0006C6800F05FFF094BA3FB00231B0D013B60
:1035D00024F4702222F0300242EA03426A606B69EE
:1035E00023F400336B6138BD004700506BCA5F6B3A
:1035F000044B186900F46070B0F5607F14BF0020C0
:103600000120704700470050024A536843F03003DE
:103610005360704700470050024A536843F001036B
:103620005360704700470050024A536823F001037B
:103630005360704700470050024B186800F00100CB
:10364000704700BF00470050034A536923F480339A
:1036500023F002035361704700470050034A536947
:1036600043F4803343F00203536170470047005036
:10367000024A536943F48033536170470047005056
:1036800008B5064A9369013823F4FE0343EA004370
:1036900093613220FFF738FA08BD00BF00470050A1
:1036A0002DE9F04180460C4616461D46069FFFF761
:1036B000B1FC012C10D0374A936923F07F03013FFE
:1036C0003B439361536943F001035361136913F062
:1036D000010FFBD0BDE8F081B8F1000F4CD04FF0E6
:1036E000C06405FB04F4B4FBF6F42A494B6943F0CB
:1036F00001034B614B6943F010034B618A69013E42
:10370000254B134043EA0663013D43EA0523234A60
:10371000A2FB0402920E013A43EA02438B614B6919
:1037200043F040034B614B6923F010034B614B693D
:1037300043F480234B610A46136913F0040FFBD056
:10374000144A536923F001035361136913F0010F05
:10375000FBD1134BA3FB0423D80EB7EBD36F13D3CA
:103760006408104BA3FB0434E00EB7EBD46F0ED308
:103770003846FFF785FFADE700F084FE0A4BA3FB58
:103780000034A40CA405ACE7FFF77AFFE8E7FFF7E5
:1037900077FFEDE700470050FF8080F0ABAAAAAAB0
:1037A00089888888B7600BB683DE1B4310B582B06A
:1037B00004460020FFF706FCFFF766FDE37923BB14
:1037C000607AFFF74DFC204AD2F8C430002BFBD1C1
:1037D000207AFFF725FD207CFFF754FC607CFFF783
:1037E00065FCA07CFFF758FCE07CFFF769FCA3793F
:1037F00093B9E378BBB9FFF731FFE368B3F5803FD6
:103800001CD000F043FE02B010BDFFF76DFEFFF7C5
:103810005FFE0028FBD0D3E7FFF7CCFEFFF7E8FE02
:103820000028FBD0E5E7FFF70FFFA378009323788C
:103830006278E178A088FFF733FFDEE74FF480304D
:10384000FFF7C0FBDDE700BF00400050024B1869E6
:10385000C0F38000704700BF0047005010F0010324
:1038600010D1013320FA03F212F0010F03D1202B03
:10387000F7D101207047202B06D0044A42F82310CC
:10388000002070470023F8E7012070473012002025
:1038900010B50B4B9A6F002422FA04F313F0010FBA
:1038A00003D10134202CF7D109E0064B53F8243022
:1038B00003B198470123A340014AC2F8803010BDEC
:1038C00000400050301200202DE9F84F81460E468E
:1038D0002A4B93F83CB1924642B11788CE1BB6B240
:1038E0000025264C2C2303FB0B4421E00027F7E79F
:1038F000A36813F0100FFBD1FFF752F8F0B1E369A2
:10390000656AED1AB54228BF35461FFA85F8206A68
:103910002A4609EB0701184400F0CEF9E3692B446D
:10392000E3614744BFB2A6EB080835461FFA88F6A4
:103930009EB1A36813F0100FDED0D9E7FEF7D4FFD5
:10394000BAF1000F05D1FEF751FF03460028EFD072
:1039500010E0AAF8007005230CE0084B2C2202FBB3
:103960000B331B89C3F38613AB4202BF044B012206
:103970001A7000231846BDE8F88F00BF9C0C002089
:10398000B01200204AB14B1E10441144013913F803
:10399000012F00F8012D8B42F9D170472DE9F04736
:1039A00081460E46234B93F83C3192463AB1178834
:1039B000CE1BB6B21F4C2C2202FB034420E0002792
:1039C000F8E7A36813F0100FFBD1FEF7E9FFE8B1A9
:1039D000E369656AED1AB54228BF35461FFA85F8D6
:1039E000206A2A4609EB07011844FFF7CBFFE36979
:1039F0002B44E3614744BFB2A6EB08081FFA88F6E0
:103A00009EB1A36813F0100FDFD0DAE7FEF76CFF6A
:103A1000BAF1000F05D1FEF7E9FE03460028EFD00A
:103A200004E0AAF80070052300E000231846BDE872
:103A3000F08700BF9C0C00202DE9F04781460E4620
:103A4000244B93F83C3192463AB11788CE1BB6B25C
:103A5000204C2C2202FB034422E00027F8E7A36855
:103A600013F0080FFBD1FEF79BFFF8B1E568B542F4
:103A700028BF35461FFA85F8616923692A4619442B
:103A800009EB070000F018F9E3685B1BE3602369AA
:103A90002B4423614744BFB2A6EB08081FFA88F6FF
:103AA0009EB1A36813F0080FDDD0D8E7FEF7EEFE55
:103AB000BAF1000F05D1FEF799FE03460028EFD0BA
:103AC00004E0AAF80070052300E000231846BDE8D2
:103AD000F08700BF9C0C00202DE9F04781460E4680
:103AE000244B93F83C3192463AB11788CE1BB6B2BC
:103AF000204C2C2202FB034422E00027F8E7A368B5
:103B000013F0100FFBD1FEF74BFFF8B1E568B5429B
:103B100028BF35461FFA85F8616923692A4619448A
:103B200009EB0700FFF72EFFE3685B1BE3602369E7
:103B30002B4423614744BFB2A6EB08081FFA88F65E
:103B40009EB1A36813F0100FDDD0D8E7FEF79EFEFC
:103B5000BAF1000F05D1FEF749FE03460028EFD069
:103B600004E0AAF80070052300E000231846BDE831
:103B7000F08700BF9C0C0020F8B506460C460CB937
:103B80000020F8BD0E4B9B6813F0100F04D00C4AB8
:103B9000936813F0100FFBD1094B5D6AA54294BFE7
:103BA000ADB22546064F2A463146386A00F084F801
:103BB000FB692B44FB61651BACB2FEF795FEDEE7AB
:103BC0009C0C002008B5FFF7D7FF08BDF8B50746E5
:103BD0000C460CB90020F8BD0D4B9B6813F0200F6C
:103BE00004D10B4A936813F0200FFBD0084EF56800
:103BF000A54228BF25462A467169384600F05CF880
:103C0000F3685B1BF360651BACB2FEF73FFEE0E7B9
:103C10009C0C002008B5FFF7D9FF08BD2DE9F0473F
:103C20000646244B93F83C31894659B1B1F80080DF
:103C3000A0EB0806B6B21F4C2C2202FB03444FF047
:103C4000000A1EE04FF00008F5E7A36813F0100F1C
:103C5000FBD1FEF7A5FED0B1E369656AED1AB54266
:103C600028BF3546AFB2206A2A465146184408F0AC
:103C70000BFCE3692B44E361B8441FFA88F8F71B97
:103C8000BEB29EB1A36813F0100FE2D0DDE7FEF7DD
:103C90002BFEB9F1000F05D1FEF7A8FD0346002861
:103CA000EFD004E0A9F80080052300E000231846C7
:103CB000BDE8F0879C0C0020130911D051F804CB0B
:103CC00040F804CB51F804CB40F804CB51F804CBB6
:103CD00040F804CB51F804CB40F804CB013BEDD1C4
:103CE00012F00F0305D011F801CB00F801CB013B16
:103CF000F9D1704701F0FC031844036901F0030196
:103D0000C9004FF0F80C0CFA01FC23EA0C03036124
:103D100003698A401A4302617047436F49004FF0BC
:103D2000030C0CFA01FC23EA0C034367436F8A403F
:103D30001A4342677047000030B501F0FC030344AA
:103D40001C6901F0030C4FEACC0C4FF0F80E0EFA90
:103D50000CFE24EA0E041C61446F4D004FF0030E6C
:103D60000EFA05FE24EA0E044467164CA04219D050
:103D700004F58074A04215D054688C404460CC088F
:103D800000EB8400046C01F00701890007258D40D9
:103D900024EA05040464056C147A04FA01F1294349
:103DA000016407E0046E4FF0010E0EFA01F124EAFF
:103DB000010101661969127802FA0CF20A431A61CC
:103DC00030BD00BF008E0248CB0800EB8300036CBF
:103DD00001F0070189004FF0070C0CFA01FC23EAFF
:103DE0000C030364036C8A401A43026470470000AA
:103DF00010B504461020FFF797F90E4B9C4209D0EE
:103E00000D4B9C420AD00D4B9C420BD00C4B9C425C
:103E10000CD010BD0420FEF7E1FFFAE70820FEF702
:103E2000DDFFF6E71020FEF7D9FFF2E70548FEF7C1
:103E3000D5FFEEE700C00040000001400040014017
:103E4000004000480100001008B50E4B984209D010
:103E50000D4B98420AD00D4B98420BD00C4B984218
:103E60000CD008BD0420FEF7ADFFFAE70820FEF7EE
:103E7000A9FFF6E71020FEF7A5FFF2E70548FEF7D9
:103E8000A1FFEEE700C000400000014000400140FB
:103E9000004000480100001038B504460D46FFF709
:103EA000A7FFE36843F48073E360236823F440438F
:103EB00043EA8533236038BD036823F0300343EAC7
:103EC000011303607047036823EA114389B2194361
:103ED000016070470B6843614B79C3F340131B05C6
:103EE00043600B7903F00F0343624B7903F00F0338
:103EF00003624B79C3F3001383610B791B09C3621F
:103F000070470B6843614B7903F001031B05436065
:103F10000B7903F00F0343620B791B09C3627047EF
:103F2000436823F00303194341604369012A0CBF2E
:103F300043F4806323F4806343617047436823F054
:103F40000C0343EA81034360436923F4407343EA6B
:103F5000022343617047436823F4405343EA01332B
:103F60004360704730B44469456825F4402C4CEAFE
:103F700081414160012A0CBF44F0807424F08074B8
:103F800023B144F40004446130BC704724F40004BD
:103F9000F9E7436823F4404343EA813343607047C1
:103FA000436823F4407343EA012343607047436846
:103FB00023F0300343EA011343607047436823F062
:103FC000C00343EA811343607047436823F44063AE
:103FD00043EA812343607047436843F4803343607E
:103FE0007047436843F40033436043694AB143F484
:103FF000001301290CBF43F4800323F480034361C1
:10400000704723F40013F4E7036823F4402391F886
:1040100001C043EA8C4323F4401392F801C043EA01
:104020000C5323F4000391F802C043EACC5323F06D
:10403000807392F802C043EA0C6323F0C05391F8F6
:1040400003C043EACC6323F0C04392F803C043EAC1
:104050004C7323F0F003097843EA011323F47063EF
:10406000127843EA02230360704770B501F1FF3C08
:104070005FFA8CFC06684FEA4C0E5FFA8EFE0EF17A
:104080001005EDB2032404FA05F326EA030653787B
:10409000AB4033431531CDB20121A94023EA0103DE
:1040A0009178A94019430EF1190E5FFA8EFE04FAB9
:1040B0000EF421EA0401D37803FA0EF30B434FEA1E
:1040C0008C01C9B20F248C4023EA040312788A4081
:1040D0001343036070BD036801398900C9B24FF012
:1040E0000F0C0CFA01FC23EA0C038A401A4302600D
:1040F000704721B9436923F0020343617047436964
:1041000043F002034361704721B9436923F001037F
:1041100043617047436943F00103436170471C31B9
:1041200000EB81004068704710B4436913F0100F32
:104130000FD1012903D04FF0020C00230CE04FF007
:10414000040C022308E04B6F136000205DF8044B61
:1041500070474FF0040C002300EB83014C6F14F404
:10416000801FF0D10133D9B26145F5D30120EDE7CD
:10417000006DC0F30152914218BF4FF0FF307047FD
:1041800010B44469490341EA823124F4C044214314
:10419000416103625DF8044B7047836A23F47063E6
:1041A00043EA0123836241627047D0F8A8300929AD
:1041B00012D8DFE801F00505151511111111090DCF
:1041C0004FF0030C00210EE04FF4407C08210AE080
:1041D0004FF4406C0A2106E04FF4405C0C2102E0F1
:1041E0004FF00C0C022123EA0C038A401A43C0F85A
:1041F000A8207047836923F0010319438161704748
:10420000074A02F10F03013802F12F0C13F8012FB6
:1042100010F8011F4A401A706345F7D1704700BF7C
:104220003000002000487047D8DC000810B5B6B058
:104230002D4B1B6835934FF000030DF1140C2B4CE4
:104240000FCCACE80F0094E80F008CE80F00284C6E
:104250004FF48062002104F1300008F015F90023CA
:104260002360A368EBB12021039105AB0293802268
:104270000023CDE9002315AA1E4800F060FA78BBA0
:104280000DAC2046FFF7BCFFA021204600F0F5FD55
:10429000154B1A68359B5A404FF0000322D136B0B7
:1042A00010BD039302934FF480320023CDE9002325
:1042B0004FF0805220210DA800F041FA0D9B0E9A7C
:1042C000C4F83034C4F83424134303D0084B01221B
:1042D0009A60C8E7084B094A5121094805F0ECFFEC
:1042E00005F0E2FFFCF728FC8CDC000824DD000868
:1042F0003000002040000020E4DC0008D4DD00088D
:1043000004DD000810B584B0044603911E4B9B6881
:1043100083B31D4B03F11002019203F586630093F2
:10432000039A0023204600F01FFC30BB174903AA64
:104330000DF1100C12F8013B11F8010F43400B7006
:104340006245F7D1104800F58662D0F83034D0F8D5
:104350003414013341F10001C0F83034C0F8341492
:1043600010300190009220220023014600F010FC42
:1043700004B010BDFFF75AFFCBE7054B054A9D215E
:10438000054805F099FF00BF300000203F000020E5
:1043900048DD0008F8DD000804DD000810B582B033
:1043A0001C4B1B681BBB1B4B9B6853B3194800F18C
:1043B0001003019300F5866300934FF4806200239D
:1043C000303000F0D1FBF8B9124C4FF47873236011
:1043D00004F58260FFF714FFD4F83034D4F83424A5
:1043E000013342F10002C4F83034C4F83424094ADD
:1043F0001368191F11602C33D0580021D15002B01E
:1044000010BDFFF713FFD1E7034B044AB621044860
:1044100005F052FF3000002048DD00081CDE0008D7
:1044200004DD000882B000230193019B984206D965
:1044300000BF019B01330193019B8342F8D302B07B
:104440007047000072B60C4B0C4A9A60BFF34F8F56
:1044500062B6D3F8882042F47002C3F888205A6903
:1044600022F008025A61064A536923F00F0343F011
:1044700003035361704700BF00ED00E00000000837
:104480000020005800487047001BB70008B51E4BBD
:10449000DB6813F4803F27D01C4BDB6913F0010F5E
:1044A00017D01B48194B1B6913F0040F14D0174B7E
:1044B00099699A699B69C1F30361C3F306430133A8
:1044C00001FB0333B0FBF3F0C2F3062303FB000050
:1044D0000BE0FFF7D7FFE5E70C4B9B6903F07F0389
:1044E0000133B0FBF3F000E00948074AD368DBB2C0
:1044F0000133B0FBF3F0136903F001030133B0FBA8
:10450000F3F0044B186008BD00460050004700500F
:1045100000366E01C0FF002010B55B4B1B6813F026
:10452000010F08D1584A536843F0010353601368E0
:1045300013F0010FFBD0554B1B6813F4007F77D1AC
:10454000534C636943F40023636140F6C410FFF7E2
:1045500069FF636923F4803323F0020363616368B6
:1045600013F0300F6ED14A4B5A6942F001025A6182
:104570005A6942F010025A61464A9A615A6942F0F9
:1045800040025A615A6922F010025A615A6942F493
:1045900080225A611A46136913F0040FFBD03C4A7B
:1045A000536923F001035361136913F0010FFBD129
:1045B000394BDA6842F48032DA6000225A611A61BB
:1045C0001A625A62DA6103229A6103F580735A69AA
:1045D00022F040025A61314A9A6140F6B830FFF742
:1045E00021FF2B4A136913F0040FFBD0284B2C4AF0
:1045F0009A6141F29410FFF715FF254A136913F0F1
:10460000040FFBD0224B274A9A6141F27070FFF7EA
:1046100009FF1F4A136913F0040FFBD0224B052238
:10462000DA6603F5A06300225A60FFF72FFF10BD82
:10463000164A936843F40073936041F64C50FFF7B9
:10464000F1FE7DE7636823F4702323F03003636099
:10465000FFF718FF6268154BA3FB00131B0D013B0E
:1046600042EA03436360E36923F00103E3616369A2
:1046700023F4003363612246136903F46073B3F5D6
:10468000607FF9D16FE700BF004200500044005046
:1046900000470050004F130100460050004F070133
:1046A000004F0401004F0301004100506BCA5F6BD3
:1046B00010B54FF00053044C0FCB84E80F00FFF708
:1046C000C1FEFBF75FFE10BDC4FF002008B5034626
:1046D0000C4A12685AB10B4A1068033323F00303E3
:1046E0000344094A934206D2064A136008BD054AAC
:1046F00006491160EFE708F045F90C2303604FF01D
:10470000FF30F3E7B4120020C0FF0020A014002007
:1047100070471020704740207047202070471020BD
:1047200070474020704720207047000001487844BF
:10473000704700BF109700004FF4C070704730B44E
:1047400030BC00F009B800F035B800F070B800F0E7
:1047500071B8202100F0A6BA0B46F0B45D1E3F2DC3
:104760001146079C069A07D8402C05D8E4B2069457
:10477000DBB2F0BC01F036BB4FF0FF30F0BC70474D
:10478000F0B50B4603F1FF3C1146BCF13F0F07AA01
:1047900092E834400BD8402C09D8E4B2CDF824E09C
:1047A00008950794DBB2BDE8F04001F056BB4FF02E
:1047B000FF30F0BD38B50C46591E3F29054611D8CB
:1047C000402A0FD8D9B204B13AB9284601F0B8F856
:1047D000003018BF0120404238BDD3B2224601F05C
:1047E0009FF9F5E74FF0FF3038BDF7B50C46591E7D
:1047F0003F290746089D099E16D8402A14D8D9B2E9
:1048000004B152B933462A46384601F0CFF8003099
:1048100018BF0120404203B0F0BDD3B28DE8600064
:10482000224601F0D4F9F2E74FF0FF30F3E701F050
:1048300011B90000FF2A08B508D9074B074A0848F4
:104840007B447A446621784405F036FDD2B2BDE857
:10485000084001F035BA00BF069600003E97000000
:104860001496000001F03CBB2DE9F04FA3B006AF59
:104870000446D7F8A08039601546C4B00023D7F8A5
:10488000A420414607F110000DF1270600F0FAFDC3
:10489000AC4226F00F0607D9D7E926010023621B98
:1048A0008B4208BF824209D3AC420ED2D7E926011F
:1048B00000232A1B8B4208BF824206D22946D7F822
:1048C0009820204607F064FD25462022002107F1AC
:1048D000300007F0D9FDD7E92623002B08BF212A95
:1048E000C7E9022303D320220023C7E90223D7F814
:1048F00008B007F14F090BF1FF336A1E2B444946FC
:104900009A4254D108F1100307F1100A7B608DE838
:104910000804D7E9022307F13008203243F10003ED
:104920004146404600F034F94146304601F000FB74
:104930000BF11F03621E434499453DD1402140467F
:1049400000F09BFAD7E90223D7E926018B4208BF82
:10495000824214D201220023CDE902237B68009316
:1049600002460B46D7E90201121A63EB0103CDF8A8
:1049700010A005EB0B0104EB0B0000F0FFF8504614
:10498000202100F07AFAD7E926232146304601F0AB
:10499000D7FA3968304601F0DFFA30464FF48071BB
:1049A00000F06BFA00207437BD46BDE8F08F12F8B6
:1049B000010F01F8010FA3E719F8011F02F8011F09
:1049C000BAE730B500256FF010049D4208BF94424D
:1049D00085B001D200F0E8F9099C0394089C029488
:1049E000CDE900230A4601461030FFF73DFF05B030
:1049F00030BD2DE9F04FA1B00DF120082C9F91465C
:104A00000C46002339462D9A10AE05461037404615
:104A100000F038FD202200238DE88001304600F0B0
:104A2000A3F848460096DDE92A23214601F074FAEE
:104A3000814648B12021404600F01FFA4FF0FF396F
:104A4000484621B0BDE8F08F002DF9D0AC4209D323
:104A5000DDE92A010023621B8B4208BF824209D391
:104A6000AC420DD8DDE92A0100232A1B8B4208BF86
:104A7000824205D221462A9A284607F089FC2C4614
:104A8000DDE92A23002B08BF212ACDE9062303D321
:104A900020220023CDE90623DDF818B00DF15F08D0
:104AA0000BF1FF33621E234441469A4234D1DDE9C3
:104AB000062310AE20320DF1200A43F100033146E7
:104AC00030468DE8800400F063F80BF11F026B1E86
:104AD0001644B04525D1DDE90623DDE92A018B42E4
:104AE00008BF824213D201220023CDE902230246ED
:104AF0000B46DDE90601121A63EB0103CDF810A0A5
:104B0000009704EB0B0105EB0B0000F037F82021B8
:104B1000504600F0B2F993E712F8010F01F8010FC7
:104B2000C3E718F8012F03F8012FD2E7002B08BFC5
:104B3000102A1FB50ED3103A079C039443F1FF339C
:104B4000069C0294CDE900230A461031FFF751FF7D
:104B500004B010BD4FF0FF30FAE720207047082066
:104B600070474FF0FF30704710B403495DF8044BB5
:104B7000794409680968084718B9FF17F0B4034C6D
:104B80007C4424686468A446F0BC604708B9FF17F9
:104B9000F0B5084C87B07C440026002724680D9DA2
:104BA0000495CDE902670C9D00956468A04707B0A5
:104BB000F0BD00BFF2B8FF17202100F073B800006D
:104BC000044B054A7B4400209A58044B7B441A60EE
:104BD000704700BFF4BFFF1700000000BCB8FF170C
:104BE000024B7B4418600020704700BFD6C6FF17F9
:104BF00010B500F00BF8044B7B441B689B6813B1A5
:104C0000BDE81040184710BDC0C6FF17054B064A47
:104C10007B447A44196821B9044952581A60FFF755
:104C2000E7BF7047A8C6FF17A6BFFF170C0000001C
:104C300010B5FFF7EBFF034B7B44BDE810401B684A
:104C40001B68184780C6FF1710B5FFF7DFFF034B3F
:104C50007B44BDE810401B685B68184768C6FF17B7
:104C600070B50446FFF7D2FF0D4B7B441B68DB6831
:104C70001BB12046BDE870401847012C0DD9634296
:104C8000B3FBF4F504FB1535FFF7DEFF8542FBD8D7
:104C9000B0FBF4F304FB130070BD184670BD00BFF9
:104CA0004EC6FF1770B50C460546FFF7AFFF44B17F
:104CB000044B7B4421461B6828461B69BDE87040B5
:104CC000184770BD06C6FF1707B5054B01927B4418
:104CD00000930A46002301F023FC03B05DF804FBB7
:104CE000D392000020207047044B7B441B6813B113
:104CF0005B6903B118470020704700BFCEC5FF179E
:104D0000012B08BF002A08B509D3074A074B0848FA
:104D10007A447B440C32CC21784405F0CDFA11461C
:104D2000BDE80840FFF7BEBF919200007D910000F2
:104D30008B910000064B01227B4453E8000F43E8AF
:104D400000210029F9D1BFF35B8F0028F5D170470E
:104D500084C5FF1770B5FFF7EDFF0446A8B90C4DE9
:104D60007D4401266B682BB1BFF35B8F344628600E
:104D7000204670BD00F03AF8FFF73AFF00F000F966
:104D80006E60BFF35B8F2C60F2E74FF0FF34EFE70C
:104D90005CC5FF17034BBFF35B8F7B44002018609B
:104DA000704700BF22C5FF1708B5FFF7C3FF38B92A
:104DB000044A7A449368BFF35B8F106003B198474D
:104DC00005F072FA0AC5FF1710B50446FFF7B2FFE7
:104DD00030B9054B7B449C60BFF35B8F186010BDFE
:104DE0004FF0FF3010BD00BFE8C4FF17034B7B44FA
:104DF0000020012258601A60704700BFDAC4FF1714
:104E0000014B7B4458687047C6C4FF17014B7B4475
:104E100098687047BAC4FF17014B7B44D868704745
:104E2000AEC4FF17014B7B4418697047A2C4FF173B
:104E3000014B7B445869704796C4FF17014B7B4474
:104E4000986970478AC4FF17014B7B44D869704743
:104E50007EC4FF17014B7B44186A704772C4FF176A
:104E6000014B7B44586A704766C4FF17014B7B4473
:104E7000986A70475AC4FF17704707F087BA70479F
:104E8000F7B5002406460F4615468DF80740FFF794
:104E9000F6FF2346AB4206D19DF807000138C00F4C
:104EA000013803B0F0BDF15CF85C9DF8072041408B
:104EB0000A438DF807200133ECE77047F7B500236C
:104EC00016468DF8063005460C4601238DF807304E
:104ED000FFF7F3FFAA19A119AA420AD19DF806000B
:104EE0009DF806209DF8073010441844013803B09F
:104EF000F0BD12F8013D11F8014D9DF807009DF835
:104F00000660E71A00EA272030438DF806009DF876
:104F100007006340013B00EAE3738DF80730DBE7ED
:104F200082B000238DF807300144884205D19DF8F6
:104F300007000138C00F02B070479DF8072010F835
:104F4000013B13438DF80730EFE70144012388420A
:104F500000D170470278134400F8013B1B0AF6E7C2
:104F600030B5013902440023904200D130BD0478AD
:104F700011F8015F2C44234400F8013B1B0AF3E7BE
:104F800008B5034810217844FFF78CFE002008BDC7
:104F90006EC3FF1708B507F0F5FC582303604FF008
:104FA000FF3008BD08B507F0F1F907F0EBFC582316
:104FB00003604FF0FF3008BD38B50546002808BF34
:104FC000012005F0E1F9044618B12A46DB2107F07B
:104FD0005BFA204638BD08B528B14FF0FF33B3FB6C
:104FE000F0F38B4204D94843BDE80840FFF7E4BF23
:104FF00007F0C8FC0C230360002008BD05F0CCB905
:1050000008B507F0BFFC582303604FF0FF3008BD20
:1050100008B507F0B7FC582303604FF0FF3008BD18
:1050200008B507F0AFFC582303604FF0FF3008BD10
:1050300073B593B35C1E23426FEA02061BBFB2FB3B
:10504000F3F503FB15253440641BB44201D3FFF78D
:10505000ABFE069D2244AA421FD208B1551C056032
:1050600000258DF807500A4484EA05009DF80710D2
:1050700016780138C0F30720314020F07F06314315
:1050800002F801199DF8071001350843AB428DF86D
:105090000700E9D1002002B070BD4FF0FF30FAE701
:1050A000F7B59A424FF00005019525D323B311447B
:1050B0002E46AE4611F801CD019F8CF08004013FD1
:1050C000013C3C400EF1FF373C40C4F300244CEA65
:1050D0000E0E6742DDF804C02F40013547EA0C0789
:1050E000AB42019746EA0406E4D1019BDB431A4434
:1050F0000260701E03B0F0BD4FF0FF30FAE7000011
:1051000001487844704700BFBB8D000010B5084CC3
:105110007C442068431C02D14FF0FF3010BD07F0E3
:1051200073FC0028F8D14FF0FF332360606010BD9E
:105130006CB3FF17F0B5244B7B4491B05B68002B38
:1051400040D107F01FFC214D06687D4401AF0021CE
:10515000286807F075FC431C04461FD0394607F049
:1051600063FCB0B9029B03F47043B3F5005F10D148
:105170000121204607F050FC022140F001022046A8
:1051800007F04AFC124D7D442C60013415D1FFF725
:105190000BFE204607F038FC043504E007F0F2FB74
:1051A0000368042BF8D12B68002BD0D107F0EAFB61
:1051B000052303604FF0FF34E4E707F0E3FB01232E
:1051C00006606B6011B0F0BD44B3FF1742B3FF1728
:1051D000F6B2FF172DE9F843224B7B4480465B680B
:1051E0000E460BB9FFF7A6FF1F4B7B44D3F8009088
:1051F000B9F1FF3F01D1FFF7D7FD46B91B4B1C4A60
:105200001C487B447A447021784405F055F8144BCF
:105210009E4216D8454637463A462946484607F044
:1052200023FC041E15DA07F0ADFB0368042BF3D052
:1052300007F0A8FB03680B2BEED0A642DBD1BDE83C
:10524000F8830D4B0D4A0E487B447A447121784413
:10525000DBE702D03F1B2544DED1A5EB0804ECE7D9
:10526000FEFFFF7FA2B2FF1792B2FF17C58C0000AE
:10527000B58D0000D28C0000C08C00006F8D000046
:105280008C8C000007B504210DEB0100FFF7A2FF95
:10529000019803B05DF804FB2DE9F04F1446A1B06E
:1052A0001D4654EA0503824689462C9A2A992D9F69
:1052B0002E9843D000230DF12008C65C03F8086047
:1052C0000133202BF9D1002304AEC85C985501337B
:1052D000082BFAD1F2540133120A102B42EA07626A
:1052E0004FEA1727F6D1CDE9004510AF009BE31A2E
:1052F0000AEB030B4B440393DDE90023002B08BFAB
:10530000402A1FD2A20942EA85629301A9095042AC
:105310009A4499446FF03F0303FB0101A2FB03236E
:105320000B44A4185D4154EA05032DD140213846B1
:10533000FFF7A3FD20214046FFF79FFD002021B08D
:10534000BDE8F08F002342463146384600F098FA17
:105350000023039AF95CD25C4A400BF80320013326
:10536000402BF6D108230122F15C0A44F2540133A8
:10537000102B4FEA1222F7D1DDE90023403A43F126
:10538000FF33CDE90023B1E70023424631463846DA
:1053900000F076FA0023A342C8D219F80320F95C82
:1053A0004A400AF803200133F5E72DE9F047144697
:1053B0009CB01D4654EA05038246249925983AD0AC
:1053C000002304AFC25CDA550133202BFAD100234D
:1053D0006E46CA5C9A550133082BFAD10022F2546A
:1053E0000133102BFBD1A046A946B9F1000FA4EB65
:1053F000080008BFB8F1400F504420D2A20942EA89
:105400008562A9096FF03F03504203FB01010AEBDB
:10541000821AA2FB03230B44A4185D4154EA05033E
:105420000DF130081FD140214046FFF726FD202115
:105430003846FFF722FD00201CB0BDE8F0870023AE
:105440003A46314600F01CFA08230122F15C0A4476
:10545000F2540133102B4FEA1222F7D1B8F1400871
:1054600049F1FF39C1E700233A463146404600F092
:1054700007FA0023A342D6D218F803200AF8032023
:105480000133F7E72DE9F04F8BB000906BB3DC6888
:105490009D685E681F6813699068029305904B6869
:1054A0005068D2F81CA0D2F81890D2F814C0D1F8E5
:1054B0000C80D1F808E0019303900B68D168126862
:1054C0000B20089008980138089013D1009A1361B6
:1054D000019B176056609560D4605361C2F818E074
:1054E000C2F81C800BB0BDE8F08F4C4C4C4D4D4EBB
:1054F0004D4FD0E707EB0C0B81EA7B6B07EB0B0101
:105500008EEAF151069159448CEAF14109910998CA
:105510000699014487EAB137911988EA71610491CB
:10552000711889EAF151079107980499014482EAB8
:10553000F1420146114486EAB13659198AEA716A84
:105540000399019805EB0A0E81EAFE5E0AEB0E0153
:1055500083EAF1430EEB030185EAB135029901EBD1
:105560000408059981EA786804EB080180EAF151A2
:10557000029808EB010C80EAFC4C01EB0C0984EA70
:10558000B93407EB080982EA796207EB02098EEA6F
:10559000F95002EB000E039088EAFE400590039854
:1055A00086460598864487EABE370BEB060E83EAEB
:1055B0007E6306EB030E81EAFE51019101985918B2
:1055C0008BEAF14100EB010E049886EABE3600EB4F
:1055D000050E8CEA7E6005EB000E0290069880EACC
:1055E000FE5E029800EB0E08049880EAF8480EEB85
:1055F000080C099885EABC350AEB040C80EA7C6C3F
:10560000079804EB0C0980EAF9590CEB090B8AEABC
:10561000FB4A09EB0A0B84EABB3453E77465206B41
:10562000322D62796E642033657870612DE9F04F18
:105630009BB0002B7AD0DC680A949C6809945C6863
:105640001B680894079313680E9353680F9393682D
:105650001093D36811931369129353691393936949
:105660001493D36915930B6816934B6817938B6843
:105670001893CB681993149B0393099B0A9DDDF83B
:105680005480DDF84CE0129C029317AB93E8080AB3
:105690000193109B04930F9B0093DDF858A0089F83
:1056A000119A0E9BDDF81CC000210B910B99249ED2
:1056B000B14248DB0799109E614401600E990B448A
:1056C00043600F99009B0B448360049B3344C36089
:1056D000119B1A44089B02613B444361169B179A35
:1056E0009A44019BC0F818A01344C361189B029A06
:1056F0009944199BC0F820909B44099BC0F824B0A2
:1057000013448362129B039A2344C362139B9E44F7
:10571000149BC0F830E01A444263159B43448363F2
:105720000A9B2B44C3631BB0BDE8F08F514B0A9317
:1057300003F1646303F5E33303F5DF7309934E4B21
:1057400008934E4B7EE70CEB0E0182EA71620CEB84
:10575000020189EAF1510C9151188EEAF1410D9143
:105760000D9E0C9931448CEAB13CD919039E8BEA09
:1057700071610591791886EAF1510391039E0599AB
:1057800001EB060B83EAFB4B33465B4487EAB337F6
:10579000029B534488EA736306930699029B03EBCA
:1057A0000108009B83EAF8580B4643448AEAF34A0F
:1057B000029B08EB0A0683EAB636049B611983EA6A
:1057C0007161019B05EB010E83EAFE5E01EB0E09A0
:1057D0000CEB010384EAF9498BEA73630EEB0904CD
:1057E0000CEB030B85EAB43588EAFB5403EB0408A1
:1057F00081EAF841049100942146049C21448CEAFA
:10580000B13CD1198AEA716A07EB0A018EEAF151BB
:105810000191514482EAF1420199114487EAB1377A
:105820000599314489EA71640C9906EB040981EA0F
:10583000F959059904EB090B81EAFB4B09EB0B01C4
:1058400086EAB1310291069901EB050E0D9981EAC4
:105850007E6E039905EB0E0681EAF651069E0391D2
:10586000714486EAF1480399414485EAB1350B99C0
:1058700002311AE77465206B6E64203365787061BD
:1058800013B514240094FFF7D1FE002002B010BD20
:10589000402070471020704720207047102070472C
:1058A00013B50C240094FFF7C1FE002002B010BD18
:1058B000402070471020704720207047102070470C
:1058C00013B508240094FFF7B1FE002002B010BD0C
:1058D00040207047102070472020704710207047EC
:1058E000164B2DE9F7437B44A0F108060C46083B14
:1058F00000F138023746F3E90289E7E90289974265
:10590000F9D140F225120021403006F0BDFD2346BA
:10591000EE4618685968724603C2D6E90245DDE9C9
:10592000000160406940E6E90201BE4203F108035C
:10593000EFD1002003B0BDE8F08300BFDE86000099
:1059400030B54B1E3F2B93B0054601D9FFF72CFA1B
:1059500001238DF80A308DF80B3000220023CDE9A9
:1059600000238DF808109DE80300002404AB83E8B1
:1059700003000E2221460DF11A008DF80940039410
:105980008DF818408DF8194006F07EFD2146102252
:105990000AA806F079FD102221460EA806F074FD33
:1059A00002A92846FFF79CFF13B030BDF0B51C4696
:1059B0004B1E3F2B93B00546164601D9FFF7F4F96D
:1059C0008DF8081000200021CDE900019DE80300BA
:1059D000012200238DF80A208DF80B2004AA82E80A
:1059E00003000E2219460DF11A008DF809300393B9
:1059F0008DF818308DF8193006F046FD0AA8FEB172
:105A00003246034606F11007106851681E4603C669
:105A10000832BA423346F7D10EA8B4B12346024643
:105A200004F1100618685968144603C40833B342D9
:105A30002246F7D102A92846FFF752FF13B0F0BD66
:105A40001022314606F020FDE6E71022214606F03E
:105A50001BFDEFE72DE9F74FDFF8C0A004460D4628
:105A600016461F4600F16008FA4400F1E00B56EAC2
:105A7000070303D1002003B0BDE8F08FD4F8600124
:105A80000023C0F58079BB424A4608BFB145CDE945
:105A9000002335D229464A46404407F051F8D4F84D
:105AA00060314B44C4F86031D4E91023803243F1B3
:105AB0000003002B08BF802AC4E91023D4E9122375
:105AC00034BF01210021521843F10003C4E912231D
:105AD0004146DAF800302046984780225946404631
